:1003A200FC60DAF266B6BEE0FEF67CEC00023A8E43
:1003910012034A12000312036B12037E1201CE8074
:0103A100FB60
:10034A007594007593007592FF7591007596FF7507
:10035A00950053CAF043C90FD284D285D286D28778
:01036A002270
:06000300538E7FD2AF22F4
:10031900010C00010800010900010A00010B00019C
:0B0329000D00010E00010F000110008C
:1000B20030C907E4F508F50D801AE5087016050D3C
:1000C200C3E50D9414748094804009E4F50D75081D
:1000D20001750C0130C807E4F509F50E801AE5092F
:1000E2007016050EC3E50E9414748094804009E4E2
:1000F200F50E750901750C0230CA07E4F50AF50F11
:10010200801AE50A7016050FC3E50F9414748094E3
:10011200804009E4F50F750A01750C0330CB06E443
:10012200F50BF51022E50B70160510C3E5109414BB
:10013200748094804009E4F510750B01750C04225B
:1001CE00E50C24FE601B14603414604C2403704C48
:1001DE00308C49E51570047F0180027F008F1580F9
:1001EE003B308C17C3E5139428E5129400400C7431
:1001FE00F62513F51374FF3512F512801F308C1689
:10020E00D3E5139450E5129400500B740A2513F5A0
:10021E0013E43512F5128004B28C8000E4F50C2242
:0603340001150101160095
:10028400E5156004051680021516AF167E00D3EF3F
:100294009404748094804005751601800EC3EF9415
:1002A40001EE648094805003751604E51624FE6004
:1002B4000E14600F1460102403700F75807F227574
:0B02C40080BF227580DF227580EF22D2
:0C033A0001121E0113000114000111004B
:10001E00E51275F00A84F514E51275F00A8485F080
:10002E00110513D3E5139404748094804003751363
:10003E0001E51324FE602A14603C14604F24037003
:10004E006275A0F7308C11E515640170059003AD53
:10005E00804E9003ACE48048208C489003B0E4803E
:10006E003F75A0FB308C069003AFE48033208C33B9
:10007E009003B1E4802A75A0FD308C07E51490033F
:10008E00A2801D208C1D9003AEE4801475A0FE305E
:10009E008C07E5119003A28007208C079003AEE435
:0400AE0093F5902214
:030346000117009C
:10036B005389F0438901758CF8758A30C28DD2A9F7
:03037B00D28C22FF
:10037E0053890F438910758DFF758BFEC28FD2ABDB
:03038E00D28E22EA
:03000B0002022EC0
:10022E00C0E0C0F0C083C082C0D075D000C000C096
:10023E0001C002C003C004C005C006C007C28DC203
:10024E008C0517C3E5179513E49512400675170034
:10025E00120284758CF8758A30D28CD007D006D0F5
:10026E0005D004D003D002D001D000D0D0D082D09F
:06027E0083D0F0D0E03255
:03001B000202CF0F
:1002CF00C0E0C0F0C083C082C0D075D000C000C0F5
:1002DF0001C002C003C004C005C006C007C28FC260
:1002EF008E1200B212001E758DFF758BFED28ED04E
:1002FF0007D006D005D004D003D002D001D000D053
:0A030F00D0D082D083D0F0D0E032CD
:03000000020142B8
:0C014200787FE4F6D8FD75811702018972
:10014E00020391E493A3F8E493A34003F68001F233
:10015E0008DFF48029E493A3F85407240CC8C333B2
:10016E00C4540F4420C8834004F456800146F6DF81
:10017E00E4800B0102040810204080900319E47EF5
:10018E00019360BCA3FF543F30E509541FFEE49376
:10019E00A360010ECF54C025E060A840B8E493A33D
:1001AE00FAE493A3F8E493A3C8C582C8CAC583CA68
:1001BE00F0A3C8C582C8CAC583CADFE9DEE780BE20
:0103490000B3
:00000001FF
