:1003A900FC60DAF266B6BEE0FEF67CEC00023A8E3C
:10036F0012034E1200031203831203961200B212ED
:04037F00023080F8D0
:10034E007594007593007592FF7591007596FF7503
:10035E00950053CAF043C90FD284D285D286D28774
:01036E00226C
:06000300538E7FD2AF22F4
:10031A00010C00010800010900010A00010B00019B
:0B032A000D00010E00010F000110008B
:1000B20030C907E4F508F50D801AE5087016050D3C
:1000C200C3E50D9464748094804009E4F50D7508CD
:1000D20001750C0130C807E4F509F50E801AE5092F
:1000E2007016050EC3E50E9464748094804009E492
:1000F200F50E750901750C0230CA07E4F50AF50F11
:10010200801AE50A7016050FC3E50F946474809493
:10011200804009E4F50F750A01750C0330CB06E443
:10012200F50BF51022E50B70160510C3E51094646B
:10013200748094804009E4F510750B01750C04225B
:10023000E50C24FE601B14602E14604124037044FE
:10024000308C41E51570047F0180027F008F15809E
:1002500033308C11C3E51294287480948040067466
:10026000F62512F512801D308C11D3E512945074CE
:100270008094805006740A2512F5128007B28C759E
:0802800080FF8000E4F50C2270
:0603350001150101160094
:10028800E5156004051680021516AF167E00D3EF3B
:100298009404748094804005751601800EC3EF9411
:1002A80001EE648094805003751604E51624FE6000
:1002B8000E14600F1460102403700F75807F227570
:0B02C80080BF227580DF227580EF22CE
:0C033B0001121E0113000114000111004A
:10001E00E51275F00A84F514E51275F00A8485F080
:10002E00110513D3E5139404748094804003751363
:10003E0001E51324FE602A14603C14604F24037003
:10004E006275A0F7308C11E515640170059003B44C
:10005E00804E9003B3E48048208C489003B7E48030
:10006E003F75A0FB308C069003B6E48033208C33B2
:10007E009003B8E4802A75A0FD308C07E514900338
:10008E00A9801D208C1D9003B5E4801475A0FE3050
:10009E008C07E5119003A98007208C079003B5E427
:0400AE0093F5902214
:060347000117000118007F
:100383005389F0438901758CF8758A30C28DD2A9DF
:03039300D28C22E7
:1003960053890F438910758DFF758B38C28FD2AB89
:0303A600D28E22D2
:03000B000201CE21
:1001CE00C0E0C0F0C083C082C0D075D000C000C0F7
:1001DE0001C002C003C004C005C006C007C28DC264
:1001EE008C0518D3E5189405748094804011751809
:1001FE00000517E51795124006751700120288754F
:10020E008CF8758A30D28CD007D006D005D004D0A9
:10021E0003D002D001D000D0D0D082D083D0F0D085
:02022E00E032BC
:03001B000202D30B
:1002D300C0E0C0F0C083C082C0D075D000C000C0F1
:1002E30001C002C003C004C005C006C007C28FC25C
:1002F3008E12001E758DFF758B38D28ED007D006F7
:10030300D005D004D003D002D001D000D0D0D08209
:07031300D083D0F0D0E032EE
:03000000020142B8
:0C014200787FE4F6D8FD75811802018971
:10014E0002036FE493A3F8E493A34003F68001F255
:10015E0008DFF48029E493A3F85407240CC8C333B2
:10016E00C4540F4420C8834004F456800146F6DF81
:10017E00E4800B010204081020408090031AE47EF4
:10018E00019360BCA3FF543F30E509541FFEE49376
:10019E00A360010ECF54C025E060A840B8E493A33D
:1001AE00FAE493A3F8E493A3C8C582C8CAC583CA68
:1001BE00F0A3C8C582C8CAC583CADFE9DEE780BE20
:01034D0000AF
:00000001FF
