:1003740012035312000312038812039B1200B212D9
:04038400023080F8CB
:100353007594007593007592FF7591007596FF75FE
:10036300950053CAF043C90FD284D285D286D2876F
:010373002267
:06000300538E7FD2AF22F4
:09031C0001150001160001170093
:100388005389F0438901758CF8758A30C28DD2A9DA
:03039800D28C22E2
:10039B0053890F438910758DF8758B30C28FD2AB93
:0303AB00D28E22CD
:03000B000202D31B
:1002D300C0E0C0F0C083C082C0D075D000C000C0F1
:1002E30001C002C003C004C005C006C007C28DC25E
:1002F3008C051612001E758CF8758A30D28CD007C7
:10030300D006D005D004D003D002D001D000D0D085
:09031300D082D083D0F0D0E0329A
:03001B000201CE11
:1001CE00C0E0C0F0C083C082C0D075D000C000C0F7
:1001DE0001C002C003C004C005C006C007C28FC262
:1001EE008E0517C3E517940574809480401175171A
:1001FE00000515E515951240067515001202887555
:10020E008DF8758B30D28ED007D006D005D004D0A5
:10021E0003D002D001D000D0D0D082D083D0F0D085
:02022E00E032BC
:10032500010C00010800010900010A00010B000190
:0B0335000D00010E00010F0001100080
:1000B20030C907E4F508F50D801AE5087016050D3C
:1000C200C3E50D94C8748094804009E4F50D750869
:1000D20001750C0130C807E4F509F50E801AE5092F
:1000E2007016050EC3E50E94C8748094804009E42E
:1000F200F50E750901750C0230CA07E4F50AF50F11
:10010200801AE50A7016050FC3E50F94C87480942F
:10011200804009E4F50F750A01750C0330CB06E443
:10012200F50BF51022E50B70160510C3E51094C807
:10013200748094804009E4F510750B01750C04225B
:10023000E50C24FE601B14602E14604124037044FE
:10024000308E41E51870047F0180027F008F188096
:1002500033308E11C3E51294287480948040067464
:10026000F62512F512801D308E11D3E512945074CC
:100270008094805006740A2512F5128007B28E759C
:0802800080FF8000E4F50C2270
:1003AE00FC60DAF266B6BEE0FEF67CEC00023A8E37
:0C03400001121E01130001140001110045
:10001E00E51275F00A84F514E51275F00A8485F080
:10002E00110513D3E5139404748094804003751363
:10003E0001E51324FE602A14603C14604F24037003
:10004E006275A0F7308E11E518640170059003B942
:10005E00804E9003B8E48048208E489003BCE48024
:10006E003F75A0FB308E069003BBE48033208E33A9
:10007E009003BDE4802A75A0FD308E07E514900331
:10008E00AE801D208E1D9003BAE4801475A0FE3044
:10009E008E07E5119003AE8007208E079003BAE419
:0400AE0093F5902214
:06034C0001180101190077
:10028800E5186004051980021519AF197E00D3EF2F
:100298009404748094804005751901800EC3EF940E
:1002A80001EE648094805003751904E51924FE60FA
:1002B8000E14600F1460102403700F75807F227570
:0B02C80080BF227580DF227580EF22CE
:03000000020142B8
:0C014200787FE4F6D8FD75811902018970
:10014E00020374E493A3F8E493A34003F68001F250
:10015E0008DFF48029E493A3F85407240CC8C333B2
:10016E00C4540F4420C8834004F456800146F6DF81
:10017E00E4800B010204081020408090031CE47EF2
:10018E00019360BCA3FF543F30E509541FFEE49376
:10019E00A360010ECF54C025E060A840B8E493A33D
:1001AE00FAE493A3F8E493A3C8C582C8CAC583CA68
:1001BE00F0A3C8C582C8CAC583CADFE9DEE780BE20
:0103520000AA
:00000001FF
