:1003B500FC60DAF266B6BEE0FEF67CEC00023A8E30
:1003A40012035D12000312037E1203911201CE8028
:0103B400FB4D
:10035D007594007593007592FF7591007596FF75F4
:10036D00950053CAF043C90FD284D285D286D28765
:01037D00225D
:06000300538E7FD2AF22F4
:10032900010C00010800010900010A00010B00018C
:0B0339000D00010E00010F000110007C
:1000B20030C907E4F508F50D801AE5087016050D3C
:1000C200C3E50D9414748094804009E4F50D75081D
:1000D20001750C0130C807E4F509F50E801AE5092F
:1000E2007016050EC3E50E9414748094804009E4E2
:1000F200F50E750901750C0230CA07E4F50AF50F11
:10010200801AE50A7016050FC3E50F9414748094E3
:10011200804009E4F50F750A01750C0330CB06E443
:10012200F50BF51022E50B70160510C3E5109414BB
:10013200748094804009E4F510750B01750C04225B
:1001CE00E50C24FE601B14603414604C2403704C48
:1001DE00308C49E51570047F0180027F008F1580F9
:1001EE003B308C17C3E5139428E5129400400C7431
:1001FE00F62513F51374FF3512F512801F308C1689
:10020E00D3E5139450E5129400500B740A2513F5A0
:10021E0013E43512F5128004B28C8000E4F50C2242
:0603440001150101160085
:1002DE00E5156004051680021516AF167E00D3EFE5
:1002EE009404748094804005751601800EC3EF94BB
:1002FE0001EE648094805003751604E51624FE60AA
:10030E000E14600F1460102403700F75807F227519
:0B031E0080BF227580DF227580EF2277
:0C034A0001121E0113000114000111003B
:10001E00E51275F00A84F514E51275F00A8485F080
:10002E00110513D3E5139404748094804003751363
:10003E0001E51324FE602A14603C14604F24037003
:10004E006275A0F7308C11E515640170059003C040
:10005E00804E9003BFE48048208C489003C3E48018
:10006E003F75A0FB308C069003C2E48033208C33A6
:10007E009003C4E4802A75A0FD308C07E51490032C
:10008E00B5801D208C1D9003C1E4801475A0FE3038
:10009E008C07E5119003B58007208C079003C1E40F
:0400AE0093F5902214
:0603560001170001180070
:10037E005389F0438901758CF8758A30C28DD2A9E4
:03038E00D28C22EC
:1003910053890F438910758DFF758BECC28FD2ABDA
:0303A100D28E22D7
:03000B0002028866
:10028800C0E0C0F0C083C082C0D075D000C000C03C
:1002980001C002C003C004C005C006C007C28DC2A9
:1002A8008C0517C3E5179513E495124006751700DA
:1002B8001202DE758CF8758A30D28CD007D006D041
:1002C80005D004D003D002D001D000D0D0D082D045
:0602D80083D0F0D0E032FB
:03001B0002022EB0
:10022E00C0E0C0F0C083C082C0D075D000C000C096
:10023E0001C002C003C004C005C006C007C28FC201
:10024E008E1200B20518C3E5189464748094804031
:10025E000675180012001E758DFF758BECD28ED0B0
:10026E0007D006D005D004D003D002D001D000D0E4
:0A027E00D0D082D083D0F0D0E0325F
:03000000020142B8
:0C014200787FE4F6D8FD75811802018971
:10014E000203A4E493A3F8E493A34003F68001F220
:10015E0008DFF48029E493A3F85407240CC8C333B2
:10016E00C4540F4420C8834004F456800146F6DF81
:10017E00E4800B0102040810204080900329E47EE5
:10018E00019360BCA3FF543F30E509541FFEE49376
:10019E00A360010ECF54C025E060A840B8E493A33D
:1001AE00FAE493A3F8E493A3C8C582C8CAC583CA68
:1001BE00F0A3C8C582C8CAC583CADFE9DEE780BE20
:01035C0000A0
:00000001FF
