:10042000FC60DAF266B6BEE0FEF67CEC00023A8EC4
:10040F001203B11200031203E91203FC1201DE8082
:01041F00FBE1
:1003B1007594007593007592FF7591007596FF75A0
:1003C100950053CAF043C90FD284D285D286D28711
:0103D1002209
:06000300538E7FD2AF22F4
:10037F00010C00010800010900010A00010B000136
:0B038F000D00010E00010F0001100026
:1000C20030C907E4F508F50D801AE5087016050D2C
:1000D200C3E50D9414748094804009E4F50D75080D
:1000E20001750C0130C807E4F509F50E801AE5091F
:1000F2007016050EC3E50E9414748094804009E4D2
:10010200F50E750901750C0230CA07E4F50AF50F00
:10011200801AE50A7016050FC3E50F9414748094D3
:10012200804009E4F50F750A01750C0330CB06E433
:10013200F50BF51022E50B70160510C3E5109414AB
:10014200748094804009E4F510750B01750C04224B
:1001DE00E50C24FE601B14603414604C2403704C38
:1001EE00308C49E51770047F0180027F008F1780E5
:1001FE003B308C17C3E5139490E5129401400C74B8
:10020E009C2513F51374FF3512F512801F308C16D2
:10021E00D3E5139420E5129403500B74642513F563
:10022E0013E43512F5128004B28C8000E4F50C2232
:06039A000117010116002D
:1002EA00E5176004051680021516AF167E00D3EFD7
:1002FA009404748094804005751601800EC3EF94AF
:10030A0001EE648094805003751604E51624FE609D
:10031A000E14600F1460102403700F75807F22750D
:0B032A0080BF227580DF227580EF226B
:0D03A0000212012C011400011500011100D2
:10001E00AE12AF137C007D641202958F15AE12AF37
:10002E00137C007D0A1202957C007D0A1202958DCA
:10003E00110514D3E5149404748094804003751450
:10004E0001E51424FE602A14603C14604F240370F2
:10005E006275A0F7308C11E5176401700590042BC2
:10006E00804E90042AE48048208C4890042EE48030
:10007E003F75A0FB308C0690042DE48033208C332A
:10008E0090042FE4802A75A0FD308C07E5159004AE
:10009E0020801D208C1D90042CE4801475A0FE3051
:1000AE008C07E5119004208007208C0790042CE427
:0400BE0093F5902204
:0303AD0001180034
:1003E9005389F0438901758CF8758A30C28DD2A979
:0303F900D28C2281
:1003FC0053890F438910758DF8758B30C28FD2AB32
:03040C00D28E226B
:1003D2007D347C07ED1D70011C144C70F7EF1F700B
:0603E200011E144E70EA3A
:0103E80022F2
:03000B0002023EB0
:10023E00C0E0C0F0C083C082C0D075D000C000C086
:10024E0001C002C003C004C005C006C007C28DC2F3
:10025E008C751800C3E5189513E4951240067518B1
:10026E00001202EA758CF8758A30D28CD007D0064F
:10027E00D005D004D003D002D001D000D0D0D0828F
:07028E00D083D0F0D0E03274
:03001B00020335A8
:10033500C0E0C0F0C083C082C0D075D000C000C08E
:1003450001C002C003C004C005C006C007C28FC2F9
:100355008E1200C212001E758DF8758B30D28ED0AC
:1003650007D006D005D004D003D002D001D000D0EC
:0A037500D0D082D083D0F0D0E03267
:03000000020152A8
:0C015200787FE4F6D8FD75811802019951
:10029500BC000BBE0029EF8DF084FFADF022E4CC4D
:1002A500F875F008EF2FFFEE33FEEC33FCEE9DEC16
:1002B500984005FCEE9DFE0FD5F0E9E4CEFD22ED5C
:1002C500F8F5F0EE8420D21CFEADF075F008EF2FA6
:1002D500FFED33FD4007985006D5F0F222C398FD97
:0502E5000FD5F0EA2234
:10015E0002040FE493A3F8E493A34003F68001F2A4
:10016E0008DFF48029E493A3F85407240CC8C333A2
:10017E00C4540F4420C8834004F456800146F6DF71
:10018E00E4800B010204081020408090037FE47E7F
:10019E00019360BCA3FF543F30E509541FFEE49366
:1001AE00A360010ECF54C025E060A840B8E493A32D
:1001BE00FAE493A3F8E493A3C8C582C8CAC583CA58
:1001CE00F0A3C8C582C8CAC583CADFE9DEE780BE10
:0103B000004C
:00000001FF
